{
  "contractName": "Lottery",
  "abi": [
    {
      "inputs": [
        {
          "name": "winningNumber",
          "type": "uint256"
        }
      ],
      "payable": false,
      "stateMutability": "nonpayable",
      "type": "constructor"
    },
    {
      "payable": true,
      "stateMutability": "payable",
      "type": "fallback"
    },
    {
      "constant": false,
      "inputs": [],
      "name": "requestToken",
      "outputs": [],
      "payable": true,
      "stateMutability": "payable",
      "type": "function"
    },
    {
      "constant": false,
      "inputs": [
        {
          "name": "guess",
          "type": "uint256"
        }
      ],
      "name": "makeGuess",
      "outputs": [],
      "payable": true,
      "stateMutability": "payable",
      "type": "function"
    },
    {
      "constant": false,
      "inputs": [],
      "name": "closeGame",
      "outputs": [],
      "payable": true,
      "stateMutability": "payable",
      "type": "function"
    },
    {
      "constant": true,
      "inputs": [],
      "name": "winnerAddress",
      "outputs": [
        {
          "name": "winnerA",
          "type": "address"
        }
      ],
      "payable": false,
      "stateMutability": "view",
      "type": "function"
    },
    {
      "constant": false,
      "inputs": [],
      "name": "getPrice",
      "outputs": [],
      "payable": true,
      "stateMutability": "payable",
      "type": "function"
    }
  ],
  "bytecode": "0x60606040526000600160146101000a81548160ff021916908315150217905550341561002a57600080fd5b60405160208061095e833981016040528080519060200190919050506001811015801561005a5750620f42408111155b1561012c57336000806101000a81548173ffffffffffffffffffffffffffffffffffffffff021916908373ffffffffffffffffffffffffffffffffffffffff160217905550620f4240600260008060009054906101000a900473ffffffffffffffffffffffffffffffffffffffff1673ffffffffffffffffffffffffffffffffffffffff1673ffffffffffffffffffffffffffffffffffffffff168152602001908152602001600020819055508060405180828152602001915050604051809103902060048160001916905550610131565b600080fd5b5061081d806101416000396000f30060606040526004361061006d576000357c0100000000000000000000000000000000000000000000000000000000900463ffffffff16806322666da61461006f5780634d7ec62814610087578063786b844b1461009157806398d5fdca1461009b578063ed7a4e0b146100a5575b005b61008560048080359060200190919050506100fa565b005b61008f61024d565b005b61009961048a565b005b6100a3610653565b005b34156100b057600080fd5b6100b86107c7565b604051808273ffffffffffffffffffffffffffffffffffffffff1673ffffffffffffffffffffffffffffffffffffffff16815260200191505060405180910390f35b60011515600160149054906101000a900460ff161515141515610245576001811015801561012b5750620f42408111155b1561023b576000600260003373ffffffffffffffffffffffffffffffffffffffff1673ffffffffffffffffffffffffffffffffffffffff168152602001908152602001600020541115610236576001600260003373ffffffffffffffffffffffffffffffffffffffff1673ffffffffffffffffffffffffffffffffffffffff168152602001908152602001600020600082825403925050819055503360036000836040518082815260200191505060405180910390206000191660001916815260200190815260200160002060006101000a81548173ffffffffffffffffffffffffffffffffffffffff021916908373ffffffffffffffffffffffffffffffffffffffff1602179055505b610240565b600080fd5b61024a565b600080fd5b50565b6000806000809054906101000a900473ffffffffffffffffffffffffffffffffffffffff1673ffffffffffffffffffffffffffffffffffffffff163373ffffffffffffffffffffffffffffffffffffffff161415156104815760011515600160149054906101000a900460ff16151514151561047757349150670de0b6b3a7640000828115156102d957fe5b04905080600260008060009054906101000a900473ffffffffffffffffffffffffffffffffffffffff1673ffffffffffffffffffffffffffffffffffffffff1673ffffffffffffffffffffffffffffffffffffffff168152602001908152602001600020541015156104725780600260008060009054906101000a900473ffffffffffffffffffffffffffffffffffffffff1673ffffffffffffffffffffffffffffffffffffffff1673ffffffffffffffffffffffffffffffffffffffff1681526020019081526020016000206000828254039250508190555080600260003373ffffffffffffffffffffffffffffffffffffffff1673ffffffffffffffffffffffffffffffffffffffff168152602001908152602001600020600082825401925050819055506000670de0b6b3a76400008381151561041557fe5b06141515610471573373ffffffffffffffffffffffffffffffffffffffff166108fc670de0b6b3a76400008481151561044a57fe5b069081150290604051600060405180830381858888f19350505050151561047057600080fd5b5b5b61047c565b600080fd5b610486565b600080fd5b5050565b6000809054906101000a900473ffffffffffffffffffffffffffffffffffffffff1673ffffffffffffffffffffffffffffffffffffffff163373ffffffffffffffffffffffffffffffffffffffff16141561064c5760018060146101000a81548160ff021916908315150217905550600360006004546000191660001916815260200190815260200160002060009054906101000a900473ffffffffffffffffffffffffffffffffffffffff16600160006101000a81548173ffffffffffffffffffffffffffffffffffffffff021916908373ffffffffffffffffffffffffffffffffffffffff160217905550600073ffffffffffffffffffffffffffffffffffffffff16600160009054906101000a900473ffffffffffffffffffffffffffffffffffffffff1673ffffffffffffffffffffffffffffffffffffffff161415610647576000809054906101000a900473ffffffffffffffffffffffffffffffffffffffff1673ffffffffffffffffffffffffffffffffffffffff166108fc3073ffffffffffffffffffffffffffffffffffffffff16319081150290604051600060405180830381858888f19350505050151561064657600080fd5b5b610651565b600080fd5b565b6000600160009054906101000a900473ffffffffffffffffffffffffffffffffffffffff1673ffffffffffffffffffffffffffffffffffffffff163373ffffffffffffffffffffffffffffffffffffffff1614156107bf5760011515600160149054906101000a900460ff16151514156107b55760023073ffffffffffffffffffffffffffffffffffffffff16318115156106ea57fe5b049050600160009054906101000a900473ffffffffffffffffffffffffffffffffffffffff1673ffffffffffffffffffffffffffffffffffffffff166108fc829081150290604051600060405180830381858888f19350505050151561074f57600080fd5b6000809054906101000a900473ffffffffffffffffffffffffffffffffffffffff1673ffffffffffffffffffffffffffffffffffffffff166108fc829081150290604051600060405180830381858888f1935050505015156107b057600080fd5b6107ba565b600080fd5b6107c4565b600080fd5b50565b6000600160009054906101000a900473ffffffffffffffffffffffffffffffffffffffff169050905600a165627a7a7230582052cc977e3b5030bc02260f63f4c0d2420cddda20e749eb848d3be214226cb0ba0029",
  "source": "pragma solidity ^0.4.0;\n\ncontract Lottery\n{\n    address Owner;\n    address winner;\n    bool private closed = false;\n    \n    modifier onlyowner()\n    {\n        if(msg.sender == Owner)\n        {\n            _;\n        }\n        else\n        {\n            throw;\n        }\n       \n    }\n    \n    modifier onlyuser()\n    {\n        if(msg.sender != Owner)\n        {\n            _;\n        }\n        else\n        {\n            throw;\n        }\n       \n    }\n    \n    modifier closedOrNot()\n    {\n        if(closed != true)\n        {\n            _;\n        }\n        else\n        {\n            throw;\n        }\n    }\n    \n    modifier onlywinner()\n    {\n        if(msg.sender == winner)\n        {\n            _;\n        }\n        else\n        {\n            throw;\n        }\n    }\n    \n    mapping(address => uint256) TokenBalances;\n    mapping(bytes32 => address) UserGuesses;\n    \n    bytes32 private winN;\n    \n    function Lottery(uint winningNumber)\n    {\n        if(winningNumber >= 1 && winningNumber <= 1000000)\n        {\n            Owner = msg.sender;\n            TokenBalances[Owner] = 1000000;\n        \n            winN = keccak256(winningNumber);\n        }\n        else\n        {\n            throw;\n        }\n    }\n    \n    \n    function requestToken() payable onlyuser closedOrNot\n    {\n        uint value = msg.value;\n        \n        uint ethAmount = value/ 1 ether;\n        \n        if(TokenBalances[Owner] >= ethAmount)\n        {\n            TokenBalances[Owner] -= ethAmount;\n            TokenBalances[msg.sender] += ethAmount;\n            \n            if((value % 1 ether) != 0)\n            {\n               msg.sender.transfer(value % 1 ether);\n            }\n            \n        }\n      \n    }\n    \n    function makeGuess(uint guess) payable closedOrNot\n    {\n        if(guess >= 1 && guess <= 1000000)\n        {\n            if(TokenBalances[msg.sender] > 0)\n            {\n                TokenBalances[msg.sender] -= 1;\n                UserGuesses[keccak256(guess)] = msg.sender;\n            }\n        }\n        else\n        {\n            throw;\n        }\n    }\n    \n    function closeGame() public payable onlyowner\n    {\n        closed = true;\n        winner = UserGuesses[winN];\n        \n        if(winner == 0x0000000000000000000000000000000000000000)\n        {\n            // if there is no winner, Owner will take call the ethers in the contract\n            Owner.transfer(this.balance);\n        }\n        \n    }\n    \n    function winnerAddress() constant returns (address winnerA)\n    {\n        return winner;\n    }\n    \n    function getPrice() payable onlywinner\n    {\n        if(closed == true)\n        {\n            uint halfTheReward = this.balance / 2;\n            \n            winner.transfer(halfTheReward);\n            Owner.transfer(halfTheReward);\n        }\n        else\n        {\n            throw;\n        }\n    }\n    \n    function () payable\n    {\n        // fallback function\n    }\n}",
  "sourcePath": "/home/rounak/Desktop/eth-lottery/contracts/lottery.sol",
  "compiler": {
    "name": "solc",
    "version": "0.4.19+commit.c4cbbb05.Emscripten.clang"
  },
  "schemaVersion": "2.0.0",
  "updatedAt": "2018-04-02T09:48:30.227Z"
}